{
  "_format": "hh-sol-artifact-1",
  "contractName": "Campaign",
  "sourceName": "contracts/campaign.sol",
  "abi": [
    {
      "inputs": [
        {
          "internalType": "uint256",
          "name": "_requiredAmount",
          "type": "uint256"
        },
        {
          "internalType": "string",
          "name": "imgURI",
          "type": "string"
        },
        {
          "internalType": "address",
          "name": "sender",
          "type": "address"
        }
      ],
      "stateMutability": "nonpayable",
      "type": "constructor"
    },
    {
      "anonymous": false,
      "inputs": [
        {
          "indexed": true,
          "internalType": "address",
          "name": "donar",
          "type": "address"
        },
        {
          "indexed": false,
          "internalType": "uint256",
          "name": "amount",
          "type": "uint256"
        },
        {
          "indexed": false,
          "internalType": "uint256",
          "name": "timestamp",
          "type": "uint256"
        }
      ],
      "name": "donated",
      "type": "event"
    },
    {
      "inputs": [],
      "name": "donate",
      "outputs": [],
      "stateMutability": "payable",
      "type": "function"
    },
    {
      "inputs": [],
      "name": "img",
      "outputs": [
        {
          "internalType": "string",
          "name": "",
          "type": "string"
        }
      ],
      "stateMutability": "view",
      "type": "function"
    },
    {
      "inputs": [],
      "name": "owner",
      "outputs": [
        {
          "internalType": "address payable",
          "name": "",
          "type": "address"
        }
      ],
      "stateMutability": "view",
      "type": "function"
    },
    {
      "inputs": [],
      "name": "recievedAmount",
      "outputs": [
        {
          "internalType": "uint256",
          "name": "",
          "type": "uint256"
        }
      ],
      "stateMutability": "view",
      "type": "function"
    },
    {
      "inputs": [],
      "name": "requiredAmount",
      "outputs": [
        {
          "internalType": "uint256",
          "name": "",
          "type": "uint256"
        }
      ],
      "stateMutability": "view",
      "type": "function"
    }
  ],
  "bytecode": "0x60806040523480156200001157600080fd5b5060405162000a5938038062000a5983398181016040528101906200003791906200038e565b82600081905550816001908051906020019062000056929190620000a1565b5080600360006101000a81548173ffffffffffffffffffffffffffffffffffffffff021916908373ffffffffffffffffffffffffffffffffffffffff1602179055505050506200046e565b828054620000af9062000438565b90600052602060002090601f016020900481019282620000d357600085556200011f565b82601f10620000ee57805160ff19168380011785556200011f565b828001600101855582156200011f579182015b828111156200011e57825182559160200191906001019062000101565b5b5090506200012e919062000132565b5090565b5b808211156200014d57600081600090555060010162000133565b5090565b6000604051905090565b600080fd5b600080fd5b6000819050919050565b6200017a8162000165565b81146200018657600080fd5b50565b6000815190506200019a816200016f565b92915050565b600080fd5b600080fd5b6000601f19601f8301169050919050565b7f4e487b7100000000000000000000000000000000000000000000000000000000600052604160045260246000fd5b620001f582620001aa565b810181811067ffffffffffffffff82111715620002175762000216620001bb565b5b80604052505050565b60006200022c62000151565b90506200023a8282620001ea565b919050565b600067ffffffffffffffff8211156200025d576200025c620001bb565b5b6200026882620001aa565b9050602081019050919050565b60005b838110156200029557808201518184015260208101905062000278565b83811115620002a5576000848401525b50505050565b6000620002c2620002bc846200023f565b62000220565b905082815260208101848484011115620002e157620002e0620001a5565b5b620002ee84828562000275565b509392505050565b600082601f8301126200030e576200030d620001a0565b5b815162000320848260208601620002ab565b91505092915050565b600073ffffffffffffffffffffffffffffffffffffffff82169050919050565b6000620003568262000329565b9050919050565b620003688162000349565b81146200037457600080fd5b50565b60008151905062000388816200035d565b92915050565b600080600060608486031215620003aa57620003a96200015b565b5b6000620003ba8682870162000189565b935050602084015167ffffffffffffffff811115620003de57620003dd62000160565b5b620003ec86828701620002f6565b9250506040620003ff8682870162000377565b9150509250925092565b7f4e487b7100000000000000000000000000000000000000000000000000000000600052602260045260246000fd5b600060028204905060018216806200045157607f821691505b6020821081141562000468576200046762000409565b5b50919050565b6105db806200047e6000396000f3fe60806040526004361061004a5760003560e01c8063426bfd001461004f57806348b9ef401461007a5780634d012f58146100a55780638da5cb5b146100d0578063ed88c68e146100fb575b600080fd5b34801561005b57600080fd5b50610064610105565b6040516100719190610378565b60405180910390f35b34801561008657600080fd5b5061008f610193565b60405161009c91906103b3565b60405180910390f35b3480156100b157600080fd5b506100ba610199565b6040516100c791906103b3565b60405180910390f35b3480156100dc57600080fd5b506100e561019f565b6040516100f2919061040f565b60405180910390f35b6101036101c5565b005b6001805461011290610459565b80601f016020809104026020016040519081016040528092919081815260200182805461013e90610459565b801561018b5780601f106101605761010080835404028352916020019161018b565b820191906000526020600020905b81548152906001019060200180831161016e57829003601f168201915b505050505081565b60005481565b60025481565b600360009054906101000a900473ffffffffffffffffffffffffffffffffffffffff1681565b6002546000541161020b576040517f08c379a0000000000000000000000000000000000000000000000000000000008152600401610202906104d7565b60405180910390fd5b600360009054906101000a900473ffffffffffffffffffffffffffffffffffffffff1673ffffffffffffffffffffffffffffffffffffffff166108fc349081150290604051600060405180830381858888f19350505050158015610273573d6000803e3d6000fd5b5034600260008282546102869190610526565b925050819055503373ffffffffffffffffffffffffffffffffffffffff167fe6add99d06d9ad7fc456e746aa162eed6211c5002ef2dacdd67b8d2016822fba34426040516102d592919061057c565b60405180910390a2565b600081519050919050565b600082825260208201905092915050565b60005b838110156103195780820151818401526020810190506102fe565b83811115610328576000848401525b50505050565b6000601f19601f8301169050919050565b600061034a826102df565b61035481856102ea565b93506103648185602086016102fb565b61036d8161032e565b840191505092915050565b60006020820190508181036000830152610392818461033f565b905092915050565b6000819050919050565b6103ad8161039a565b82525050565b60006020820190506103c860008301846103a4565b92915050565b600073ffffffffffffffffffffffffffffffffffffffff82169050919050565b60006103f9826103ce565b9050919050565b610409816103ee565b82525050565b60006020820190506104246000830184610400565b92915050565b7f4e487b7100000000000000000000000000000000000000000000000000000000600052602260045260246000fd5b6000600282049050600182168061047157607f821691505b602082108114156104855761048461042a565b5b50919050565b7f526571756972656420416d6f756e742046756c66696c6c656421000000000000600082015250565b60006104c1601a836102ea565b91506104cc8261048b565b602082019050919050565b600060208201905081810360008301526104f0816104b4565b9050919050565b7f4e487b7100000000000000000000000000000000000000000000000000000000600052601160045260246000fd5b60006105318261039a565b915061053c8361039a565b9250827fffffffffffffffffffffffffffffffffffffffffffffffffffffffffffffffff03821115610571576105706104f7565b5b828201905092915050565b600060408201905061059160008301856103a4565b61059e60208301846103a4565b939250505056fea2646970667358221220b0ba26875db71786c383c67aa814abe828dbc58f87debe24ec77a48f2079836b64736f6c634300080a0033",
  "linkReferences": {},
  "deployedLinkReferences": {}
}